:10080000E4F508F5C6E5C620E6FB75F33C75FE0386
:100810007F04120D4F120A0F120B7E7F01120DD6AC
:100820007F23120DD67F45120DD67F67120DD67F1E
:1008300089120DD690DF3BE07823F6E6FFB40D0376
:10084000D38001C39290EFB41303D38001C392917C
:100850007823E624F3700302092124FC70030209C3
:100860003B24FE700302093E24FD7003020991241B
:100870001560030209C87875E6D394005003020995
:10088000017F52120DE27F78120DE27F42120DE2DB
:100890007F20120DE27F3D120DE27F20120DE21249
:1008A0000D817875E6FF120CA17F0D120DE27F0A13
:1008B000120DE2120D817F52120DE27F78120DE2CD
:1008C0007F44120DE27F20120DE27F3D120DE27F88
:1008D00020120DE2120D81E4F508E508C378759643
:1008E000500E74252508F8E6FF120D07050880EA6A
:1008F000E47875F67F0D120DE27F0A120DE2120DFB
:1009000081E47824F620920D7822E690DF02F075DB
:10091000E103020A0690DF027419F075E102020A8F
:1009200006208903020A06C289E5D9F4FF7875E634
:100930002425F8A607787506020A06020A037F53E3
:10094000120DE27F74120DE27F4D120DE27F201234
:100950000DE27F3D120DE27F20120DE2120D817833
:1009600023E6FF120D077F0D120DE27F0A120DE242
:10097000120D817824E6FFC378229650123089F355
:10098000744D2FF8E6F4F5D9C28978240680E48006
:10099000727F53120DE27F74120DE27F4D120DE251
:1009A0007F20120DE27F3D120DE27F20120DE21238
:1009B0000D817823E6FF120D077F0D120DE27F0AED
:1009C000120DE2120D81803B20923B2093387F5321
:1009D000120DE27F74120DE27F4D120DE27F2012A4
:1009E0000DE27F3D120DE27F20120DE2120D8178A3
:1009F00023E6FF120D077F0D120DE27F0A120DE2B2
:0F0A0000120D8175E1047823E67821F60208349F
:100A0F007F1B120DE27F5B120DE27F32120DE27F30
:100A1F004A120DE27F1B120DE27F5B120DE27F483F
:100A2F00120DE2120D817F7A120DE27F54120DE248
:100A3F007F73120DE27F75120DE27F6E120DE27F52
:100A4F0061120DE27F6D120DE27F69120DE27F20C0
:100A5F00120DE27F76120DE27F30120DE27F2E1221
:100A6F000DE27F31120DE27F0D120DE27F0A120DA2
:100A7F00E2120D817F4A120DE27F65120DE27F6156
:100A8F00120DE27F6E120DE27F2D120DE27F4C12DE
:100A9F000DE27F6F120DE27F75120DE27F69120D6D
:100AAF00E27F73120DE27F20120DE27F42120DE200
:100ABF007F6F120DE27F75120DE27F72120DE27FD2
:100ACF0064120DE27F6F120DE27F6E120DE27F0D49
:100ADF00120DE27F0A120DE2120D817F6A120DE2F2
:100AEF007F6E120DE27F6C120DE27F73120DE27FAB
:100AFF002E120DE27F62120DE27F6F120DE27F75F3
:100B0F00120DE27F72120DE27F64120DE27F6F12FF
:100B1F000DE27F6E120DE27F40120DE27F67120D24
:100B2F00E27F6F120DE27F6F120DE27F67120DE20F
:100B3F007F6C120DE27F65120DE27F6D120DE27F69
:100B4F0061120DE27F69120DE27F6C120DE27F2EB2
:100B5F00120DE27F63120DE27F6F120DE27F6D12B5
:0F0B6F000DE27F0D120DE27F0A120DE2020D81E1
:0F0DC0000175000122000124000121FF0123FE23
:100B7E0090DF177443F090DF117435F090DF157429
:100B8E0016F090DF0B7466F090DF0AF090DF0974B8
:100B9E0021F090DF1F741FF090DF1EE4F090DF1D38
:100BAE00742AF090DF1C74E9F090DF077406F09061
:100BBE00DF39747FF090DF147418F090DF0F7472C9
:100BCE00F090DF0E7406F090DF0D7493F090DF0C52
:100BDE0074CAF090DF2E7450F090DF04E4F090DFD2
:100BEE0003F090DF027414F090DF01740FF090DFC9
:100BFE000074AAF090DF257409F090DF247435F0AC
:070C0E0090DF237481F02246
:0C0DD6007822E6244DF8A60778220622B9
:060DCF0001C70001C6008F
:100D4F007586C0EF24FE60121460161460181460CC
:100D5F001A2404701C75C506800375C50875C283F7
:100D6F002275C50B800875C50C800375C50D75C23E
:020D7F0022222E
:100D8100C2E9E4FF78C7E6FEEFC39E5011749E2FBF
:100D9100F8E6F5C1E4F630E9FDC2E90F80E6E47852
:020DA100C7F693
:010DA300222D
:100DA400C28BE4FF78C6E6FEEFC39E500E308BFD87
:0B0DB40074762FF8A6C1C28B0F80E9F7
:010DBF002211
:0C0DE20078C7E6249EF8A60778C7062212
:020D07008F0952
:100D0900E4F50AF50B7F30120DE27F78120DE2E56A
:100D190009C4540FF50BC3940AE50B500424308021
:100D2900022437FF120DE2E509540FF50AC3940AAC
:100D3900E50A5004243080022437FF120DE27F2097
:060D4900120DE2020D8113
:100CA100E4F5098F09E50975F06484FFD3940040E8
:100CB1001AEF2430FF120DE2E50975F0648475F036
:100CC10064A4FFC3E5099FF50980057F30120DE299
:100CD100E50975F00A84FFD39400401AEF2430FF30
:100CE100120DE2E50975F00A8475F00AA4FFC3E567
:100CF100099FF50980057F30120DE2E5092430FFD7
:060D0100120DE2020D815B
:03000000020C15DA
:0C0C1500787FE4F6D8FD7581C7020C5C06
:100C2100020800E493A3F8E493A34003F68001F2E1
:100C310008DFF48029E493A3F85407240CC8C333D4
:100C4100C4540F4420C8834004F456800146F6DFA3
:100C5100E4800B0102040810204080900DC0E47E66
:100C6100019360BCA3FF543F30E509541FFEE49398
:100C7100A360010ECF54C025E060A840B8E493A35F
:100C8100FAE493A3F8E493A3C8C582C8CAC583CA8A
:100C9100F0A3C8C582C8CAC583CADFE9DEE780BE42
:010DD500001D
:00000001FF
